:020000040800F2
:10000000380400209D010008C7100008290D0008D1
:10001000C5100008950400087111000800000000D8
:10002000000000000000000000000000CB100008ED
:100030009704000800000000C9100008CD10000857
:10004000B7010008B7010008B7010008B7010008B0
:10005000B7010008B7010008B7010008B7010008A0
:10006000B7010008B7010008B7010008B701000890
:10007000B7010008B7010008B7010008B701000880
:10008000B7010008B7010008B7010008B701000870
:10009000B7010008B7010008B7010008B701000860
:1000A000B7010008B7010008B7010008B701000850
:1000B000B7010008B7010008B7010008B701000840
:1000C000B7010008B7010008B7010008B701000830
:1000D000B7010008B7010008B7010008B701000820
:1000E000B7010008B7010008B7010008B701000810
:1000F000B7010008B7010008B7010008B701000800
:10010000B7010008B7010008B7010008B7010008EF
:10011000B7010008B7010008B7010008B7010008DF
:10012000B7010008B7010008B7010008B7010008CF
:10013000B7010008B7010008B7010008B7010008BF
:10014000B7010008B7010008B7010008B7010008AF
:10015000B7010008B7010008B7010008B70100089F
:10016000B7010008B7010008B7010008B70100088F
:10017000B7010008B7010008B7010008000000003F
:10018000B7010008B7010008DFF80CD000F070F9E3
:1001900000480047B1110008380400200648804795
:1001A00006480047FEE7FEE7FEE7FEE7FEE7FEE75C
:1001B000FEE7FEE7FEE7FEE75511000889010008AB
:1001C0002DE9F05F0546002092469B46884606468C
:1001D000814640241BE0284641464746224600F01F
:1001E000D9F853465A46C01A914110D311461846C1
:1001F000224600F0C0F82D1A67EB01084F46224650
:100200000120002100F0B7F817EB00094E41201E35
:10021000A4F10104DFDC484631462A464346BDE8E6
:10022000F09FD2B201E000F8012B491EFBD27047CB
:100230000022F6E710B513460A4604461946FFF7B2
:10024000F0FF204610BD2DE9FE4F81EA030404F0C3
:10025000004421F0004100944FF0000B23F00043D4
:1002600050EA01045ED052EA03045BD0C3F30A549F
:10027000C1F30A552C44A4F2F3340194A0FB0254B8
:10028000C1F3130141F48011C3F3130343F480134A
:1002900001FB024400FB034E840A970A44EA81549E
:1002A00047EA8357A4FB076802958D0A05FB07857B
:1002B0004FEA932C04FB0C542705029D4FEA065885
:1002C00047EA1637B5EB08056EEB070C870E920E62
:1002D00047EA811742EA8312A7FB0201B6EB0B0142
:1002E00064EB00042B0D43EA0C335E1844EB1C5006
:1002F000DA465146E7FB0201C5F313044FEA0B331C
:1003000043EA14534FEA0432019C43EA0603A4F182
:100310000C040294009CCDE900B400F05AF803B03C
:10032000BDE8F08F00200146F9E70EB540F23341F9
:1003300002910021CDE900110A460B4600F049F870
:1003400003B000BDC1F30A5210B5C1F3130140F26E
:10035000FF3341F480119A4201DA002010BD40F2CF
:1003600033439A42A2F2334203DC524200F012F8C5
:1003700010BD904010BD202A04DB203A00FA02F1A3
:10038000002070479140C2F1200320FA03F3194383
:1003900090407047202A04DB203A21FA02F0002125
:1003A000704721FA02F3D040C2F120029140084385
:1003B0001946704710B5141E73F1000408DA401C8A
:1003C00041F1000192185B411A4301D120F0010074
:1003D00010BD2DE9F04D92469B4611B1B1FA81F264
:1003E00002E0B0FA80F220329046FFF7C4FF0446E4
:1003F0000F4640EA0A0041EA0B0153465A460843B9
:1004000013D0114653EA010019D0C8F140025046FA
:10041000FFF7C0FF05460E46504659464246FFF7D5
:10042000AAFF084305D0012004E020463946BDE874
:10043000F08D0020054346EAE0762C4337430A98C6
:100440006305E40AA0EB08000022FD0A44EA4754D1
:100450000A3002D500200146E9E70105101969417B
:10046000DDE9084500196941BDE8F04DA2E700004B
:10047000064C074D06E0E06840F0010394E80700F1
:1004800098471034AC42F6D3FFF782FE6C12000896
:100490008C120008FEE7704770B5044600F0F4F8CF
:1004A0000546601C02D004480078044400F0ECF8D3
:1004B000401BA042FAD370BD240000202DE9F84F64
:1004C00000224FF0010803254FF00F0E0B6808FAC9
:1004D00002F42340A3426ED14E68012E05D0022EB5
:1004E00003D0112E01D0122E12D186684FEA420C91
:1004F00005FA0CF7BE43CF6807FA0CF7374387605D
:100500004668A6430C79C4F3001494403443446015
:10051000C668570005FA07FC8C6826EA0C06BC4042
:100520003443C4604C68022C01D0122C13D1D4087F
:1005300000EB8404A346D4F8209054074FEAD46A11
:100540000EFA0AF629EA06090E6906FA0AF646EADA
:100550000906CBF8206006680C7926EA0C0604F040
:100560000304BC40344304604C68E40065D5364C59
:10057000266846F480462660246822F0030604F4C8
:1005800080440094314C3444A446D4F8084896077B
:10059000370F0EFA07F6B4432D4EB04201D10026B4
:1005A00024E02C4EB04201D101261FE02A4EB04279
:1005B00002D102261AE040E0284EB04201D10326C3
:1005C00014E0274EB04201D104260FE0254EB04280
:1005D00001D105260AE0244EB04201D1062605E0ED
:1005E000224EB04201D1072600E00826BE40264335
:1005F000CCF808681E4E34684F689C43FF0300D552
:100600001C4334601A4C241D26684F689E43BF0368
:1006100000D51E432660164E083634684F689C434A
:10062000FF0200D51C433460114E0C3634684F680D
:100630009C43BF0200D51C433460521C102AFFF4B7
:1006400045AFBDE8F88F000044380240003001405B
:10065000000002400004024000080240000C02407A
:10066000001002400014024000180240001C02402A
:10067000003C01400069084000D0012070470AB1E9
:10068000816170470904FBE70148806870470000FA
:10069000240000200248816802781144816070477C
:1006A000240000200B4810B5016841F4007101607E
:1006B000016841F480610160016841F4807101606A
:1006C000032000F061F8002000F006F800F024F8A4
:1006D000002010BD003C024070B50D4D04464FF4A3
:1006E0007A712878B1FBF0F00A490968B1FBF0F0A3
:1006F00000F006FB48B9102C07D200222146501EFC
:1007000000F022F800206C6070BD012070BD000078
:1007100024000020300000200A4808B5016841F498
:1007200080410160006800F4804000900548001F8F
:10073000016841F080510160006800F08050009035
:1007400008BD000044380240F0B40E4B1B680C4654
:10075000C3F30223C3F10705042D00D90425191D95
:10076000072901D2002300E0DB1E012606FA05F16D
:10077000491E214099409E40761E16403143F0BCF0
:1007800000F0F7BC0CED00E0064900F00702086835
:100790004FF6FF03184040EA0220034A1043086066
:1007A000704700000CED00E00000FA052DE9F0476D
:1007B0000E46050065D0DFF81481D8F80000F7B2C6
:1007C00000F00F00B04207D288F80070D8F800009F
:1007D00000F00F00B04254D128683D4C810712D57B
:1007E000400703D5206840F4E050206028780007D7
:1007F00003D5206840F4604020602068A96820F09C
:10080000F000084320602878C0072DD03049686880
:100810000839012812D0022813D0032811D0096802
:10082000890700292DDA216821F0030101432160A5
:10083000FFF72AFF814641F2883A0EE009688903F2
:10084000EFE709688901ECE7FFF71EFFA0EB09015C
:10085000514502D90320BDE8F0872068696800F09F
:100860000C00B0EB810FEFD1D8F80010404601F03A
:100870000F01B14207D90770006800F00F00B042C5
:1008800001D00120E7E72878400705D52068E9680E
:1008900020F4E050084320602878000706D520683F
:1008A000296920F4604040EAC100206000F048F867
:1008B0002168084AC1F30311515CC8400649086029
:1008C00006480068FFF708FF0020C4E7003C02402C
:1008D0000838024054120008300000202800002090
:1008E0000F2202600C4A136803F00303436013688D
:1008F00003F0F0038360136803F4E053C3601268ED
:100900004FF4E05303EAD20202610448006800F0A9
:100910000F0008607047000008380240003C0240A9
:100920000448054900680968044AC1F38221515C02
:10093000C8407047300000200838024064120008A8
:10094000154810B5006810F00C02144813D0144973
:10095000042A0FD0082A0ED10F4C241F22682368C6
:1009600002F03F025B0207D52068C0F38810A0FBAD
:10097000010106E0084610BD2168C1F38811A1FB02
:1009800000010023FFF71CFC2168C1F30141491C51
:100990004900B0FBF1F010BD083802400024F4001B
:1009A00040787D012DE9F84F04006ED02078DFF803
:1009B0003C93C007A9F104054AD009F1040001687D
:1009C000C1F38101012908D00068C0F38100022829
:1009D0000AD1D9F80000400206D52868800337D52F
:1009E00060680028E1D033E06068B0F5803F10D047
:1009F000B0F5A02F286810D020F480302860286837
:100A000020F4802028606068A8B1FFF73DFE06460C
:100A10000DE0286840F48030F4E740F4802028603E
:100A2000F7E700BFFFF730FE801B642873D8286803
:100A30008003F7D50CE0FFF727FE064605E000BF70
:100A4000FFF722FE801B6428F0D828688003F7D4C3
:100A50002078DFF89C8280074FF0000A3ED5A3483B
:100A6000001D016811F00C0F08D00068C0F3810070
:100A700002280BD1D9F80000400207D4286880076B
:100A800016D5E068012800D112E02BE1E068B8B18A
:100A90000120C8F80000FFF7F7FD064605E000BF9B
:100AA000FFF7F2FD801B0228C0D828688007F7D521
:100AB0002868216920F0F80040EAC10028600DE0B4
:100AC000C8F800A0FFF7E0FD064604E0FFF7DCFDF4
:100AD000801B02281FD828688007F7D420780007D9
:100AE00022D5824E83486169703671B1012101605F
:100AF000FFF7CAFD074604E0FFF7C6FDC01B02284A
:100B000009D830688007F7D50EE0C0F800A0FFF7DD
:100B1000BBFD074605E082E0FFF7B6FDC01B0228DB
:100B20007DD830688007F7D42078400768D5DFF893
:100B3000BCB100270BF13C0BDBF80000C0000BD46C
:100B4000DBF8001041F08051CBF80010DBF800001A
:100B5000012700F080500090674E3068C00510D427
:100B6000306840F480703060FFF78EFD009005E043
:100B7000FFF78AFD0099401A022850D83068C00556
:100B8000F6D55A4EA0686C3601280FD0052830687B
:100B900010D020F001003060306820F00400306098
:100BA000A068B8B1FFF770FD00900FE0306840F02A
:100BB0000100F4E740F004003060F7E7FFF764FD60
:100BC0000099411A41F28830814266D83068800726
:100BD000F4D50EE0FFF758FD009007E0FFF754FD55
:100BE0000099411A41F28830814256D83068800716
:100BF000F4D42FB1DBF8001021F08051CBF80010B5
:100C0000A069C8B33949091D0968C1F381010229E6
:100C10004AD00228504607D0C8F8600000E03CE007
:100C2000FFF732FD04463BE04746C8F86000FFF797
:100C30002BFD064605E000BFFFF726FD801B0228BE
:100C40002BD828688001F7D4D4E907010843A16AAA
:100C50002A4A490802EB0141626A41EA82110843CB
:100C600094F82C1040EA0161C9F8001001203866A0
:100C7000FFF70AFD044606E036E000BFFFF704FD7B
:100C8000001B022809D828688001F7D52CE000BF96
:100C9000FFF7FAFC001B022802D90320BDE8F88FF9
:100CA00028688001F4D41FE00128F7D0D9F80000AB
:100CB000E26900F48001914214D1226A00F03F0100
:100CC00091420FD147F6C071626A0140914209D149
:100CD000A26A00F44031914204D1E16A00F07060F0
:100CE000884201D00120D9E70020D7E7043802402C
:100CF00000004742800E4742007000400000FFFFA6
:100D000010B5401EB0F1807F01D3012010BD4FF01F
:100D1000E02460610F21601700F02BFA0020A06131
:100D200007202061002010BDFEE70121084600F0E9
:100D3000D7B800002DE9F05F0AAC94E8E05F1E4CE4
:100D4000A061A180E280E36125816681A781A4F88A
:100D50000E80C4F82090A4F810A0A4F812B0A4F853
:100D600014C0A4F816E000F049F8012020703820E3
:100D7000A0701420FFF790FB302000F031F905201F
:100D8000FFF78AFB302000F02BF90120FFF784FBEE
:100D9000302000F025F90120FFF77EFB382000F01D
:100DA0001FF90F2000F01CF9012000F019F9BDE82F
:100DB000F05F0220FFF770BB0000002010B5094C67
:100DC0000122E188A069FFF75AFC0A2000F060F8D0
:100DD0000022E188A069FFF752FCBDE810403C20EA
:100DE00000F056B8000000200200034881888069A6
:100DF00000D00122FFF743BC0000002000B587B0FF
:100E000005A96846FFF76CFD0398A8B3FFF788FDB6
:100E10005FEA4000FFF789FA9FED191B53EC112B95
:100E2000FFF711FAFFF78EFA17490A6842F002023B
:100E30000A6016490A6822F010020A600A6822F065
:100E400001020A600A6822F004020A600A6842F09D
:100E500008020A600D492831401E08600920091D5A
:100E600008600A49012014310860081F016821F058
:100E70000101016007B000BDFFE7FFF751FDC9E7C1
:100E80008DEDB5A0F7C6B03E4038024000040040EA
:100E90000949401E086008481C38016821F001011A
:100EA000016005492C390A6842F001020A600168B4
:100EB000C907FCD0704700002C04004070B50646FE
:100EC000002409E00120FFF78FFF284600F016F804
:100ED000641CE4B2102C02D2355D002DF2D170BD3D
:100EE000491E01F00F01012804D041F0C00000BFED
:100EF00000F076B841F08000FAE700002DE9F84FE5
:100F00000209364C02F0080302F0040B217802F0CB
:100F1000020902F0010700F0080A00F0040600F0E0
:100F2000020500F00108009301292FD0022952D1B7
:100F30003A46218A206AFFF7A2FB4A46618A206A64
:100F4000FFF79DFB5A46A18A206AFFF798FBE18ACA
:100F5000009A206AFFF793FBFFF730FF4246218A91
:100F6000206AFFF78CFB2A46618A206AFFF787FB1D
:100F70003246A18A206AFFF782FB5246E18A206A44
:100F8000FFF77DFBBDE8F84FFFF718BF4246218908
:100F9000E069FFF774FB2A466189E069FFF76FFBA0
:100FA0003246A189E069FFF76AFB5246E189E069B0
:100FB000FFF765FB3A46218A206AFFF760FB4A4645
:100FC000618A206AFFF75BFB5A46A18A206AFFF715
:100FD00056FB009AD2E7BDE8F88F00000000002021
:100FE00010B504460020FFF7FFFE2046BDE8104084
:100FF000FFF784BF2DE9F04786B014216846FFF75C
:1010000017F92C480024016841F0010101600168D2
:1010100001F001010591016841F0020101600168E0
:1010200001F002010591016841F0080101600068CA
:10103000DFF8848000F0080005900022302140464F
:10104000FFF71DFBDFF874904FF2280600223146AF
:101050004846FFF714FBDFF868A04FF470670022E2
:1010600039465046FFF70BFB012502200095CDE9DC
:10107000014069464046FFF721FA30200090CDE953
:101080000154694640460394FFF718FA0096CDE9EB
:101090000154694648460394FFF710FA0097CDE9DA
:1010A0000154694650460394FFF708FA06B0BDE8BC
:1010B000F087000030380240000002400004024087
:1010C000000C0240FEE7704770477047FFF7E2BA36
:1010D00030B593B030216846FFF7AAF814210CA868
:1010E000FFF7A6F819480025016841F0805101601A
:1010F000006800F0805011901548016841F480416B
:1011000001600068022400F48040119001200390E7
:1011100010200490009406940820CDE90750A820E0
:10112000CDE9090404200B906846FFF73BFC0CA9AD
:101130000F2081E831004FF4A0500F90E002109092
:1011400005210CA8FFF732FB13B030BD4038024038
:10115000007000400548016841F4700101600349D6
:101160004FF00060803908607047000088ED00E0B3
:10117000FEE70907090E002804DB00F1E02080F8F3
:101180000014704700F00F0000F1E02080F8141DFB
:10119000704702E008C8121F08C1002AFAD1704740
:1011A0007047002001E001C1121F002AFBD17047E7
:1011B0008AB0FFF777FAFFF78BFFFFF71BFF4FF4BB
:1011C00000435A1051100DF1140C48108CE80F0018
:1011D00040104110CDE902108210C010CDE900028C
:1011E000194D174C0494174B102220212846FFF765
:1011F000A1FD01212846FFF73DFA30B1FFF795FD2B
:1012000012A0FFF75BFE012205E0FFF78EFD10A0A4
:10121000FFF754FE002220212046FFF730FA01227A
:1012200008212046FFF72BFA0520FFF735F90022A9
:1012300008212046FFF723FA3220FFF72DF9D8E7DF
:1012400000040240000C0240000002402D0000009B
:101250002B00000000000000000000000102030459
:101260000607080900000000010203048C120008B0
:10127000000000203400000092110008C012000895
:101280003400002004040000A2110008010F3800FF
:10129000000000000000000000000000000000004E
:1012A000000000000000000000000000000000003E
:1012B0000100000010000000000000000024F40005
:040000050800018965
:00000001FF
